{
  "abi": [
    {
      "inputs": [
        {
          "internalType": "uint256",
          "name": "_increment",
          "type": "uint256"
        }
      ],
      "name": "incrementValue",
      "outputs": [],
      "stateMutability": "nonpayable",
      "type": "function"
    },
    {
      "inputs": [],
      "name": "resetValue",
      "outputs": [],
      "stateMutability": "nonpayable",
      "type": "function"
    },
    {
      "inputs": [
        {
          "internalType": "uint256",
          "name": "_value",
          "type": "uint256"
        }
      ],
      "name": "setValue",
      "outputs": [],
      "stateMutability": "nonpayable",
      "type": "function"
    },
    {
      "inputs": [],
      "name": "value",
      "outputs": [
        {
          "internalType": "uint256",
          "name": "",
          "type": "uint256"
        }
      ],
      "stateMutability": "view",
      "type": "function"
    }
  ],
  "bytecode": {
    "object": "0x608060405234801561001057600080fd5b5061020e806100206000396000f3fe608060405234801561001057600080fd5b506004361061004c5760003560e01c806316e9fe81146100515780633fa4f2451461005b5780635524107714610076578063566da06d14610089575b600080fd5b61005961009c565b005b61006460005481565b60405190815260200160405180910390f35b610059610084366004610182565b6100f9565b610059610097366004610182565b61014e565b6000546000036100f35760405162461bcd60e51b815260206004820152601c60248201527f56616c7565206d757374206e6f74206265203020746f2072657365740000000060448201526064015b60405180910390fd5b60008055565b600081116101495760405162461bcd60e51b815260206004820152601c60248201527f56616c7565206d7573742062652067726561746572207468616e20300000000060448201526064016100ea565b600055565b60005461015b828261019b565b1015610169576101696101c2565b8060008082825461017a919061019b565b909155505050565b60006020828403121561019457600080fd5b5035919050565b808201808211156101bc57634e487b7160e01b600052601160045260246000fd5b92915050565b634e487b7160e01b600052600160045260246000fdfea26469706673582212201a01127b6738c4d1cf75185e3595c68f95e0f02884236cb187846e523e93b12464736f6c63430008150033",
    "linkReferences": {}
  },
  "methodIdentifiers": {
    "incrementValue(uint256)": "566da06d",
    "resetValue()": "16e9fe81",
    "setValue(uint256)": "55241077",
    "value()": "3fa4f245"
  },
  "id": 0
}